{
  "contractName": "Time",
  "abi": [
    {
      "inputs": [],
      "stateMutability": "nonpayable",
      "type": "constructor"
    },
    {
      "inputs": [],
      "name": "bornDate",
      "outputs": [
        {
          "internalType": "uint256",
          "name": "",
          "type": "uint256"
        }
      ],
      "stateMutability": "view",
      "type": "function"
    },
    {
      "inputs": [],
      "name": "secondsAgo",
      "outputs": [
        {
          "internalType": "uint256",
          "name": "",
          "type": "uint256"
        }
      ],
      "stateMutability": "view",
      "type": "function"
    },
    {
      "inputs": [],
      "name": "minutesAgo",
      "outputs": [
        {
          "internalType": "uint256",
          "name": "",
          "type": "uint256"
        }
      ],
      "stateMutability": "view",
      "type": "function"
    },
    {
      "inputs": [],
      "name": "daysAgo",
      "outputs": [
        {
          "internalType": "uint256",
          "name": "",
          "type": "uint256"
        }
      ],
      "stateMutability": "view",
      "type": "function"
    },
    {
      "inputs": [],
      "name": "weeksAgo",
      "outputs": [
        {
          "internalType": "uint256",
          "name": "",
          "type": "uint256"
        }
      ],
      "stateMutability": "view",
      "type": "function"
    },
    {
      "inputs": [],
      "name": "monthsAgo",
      "outputs": [
        {
          "internalType": "uint256",
          "name": "",
          "type": "uint256"
        }
      ],
      "stateMutability": "view",
      "type": "function"
    },
    {
      "inputs": [],
      "name": "yearsAgo",
      "outputs": [
        {
          "internalType": "uint256",
          "name": "",
          "type": "uint256"
        }
      ],
      "stateMutability": "view",
      "type": "function"
    }
  ],
  "bytecode": "0x608060405234801561001057600080fd5b504260008190555061049d806100276000396000f3fe608060405234801561001057600080fd5b506004361061007d5760003560e01c8063611351331161005b57806361135133146100dc578063633dd145146100fa57806370299f7414610118578063ecd104ed146101365761007d565b80631c284afd1461008257806338fcd9dc146100a057806359b55da0146100be575b600080fd5b61008a610154565b6040516100979190610314565b60405180910390f35b6100a8610177565b6040516100b59190610314565b60405180910390f35b6100c66101e7565b6040516100d39190610314565b60405180910390f35b6100e4610208565b6040516100f19190610314565b60405180910390f35b61010261020e565b60405161010f9190610314565b60405180910390f35b61012061022f565b60405161012d9190610314565b60405180910390f35b61013e61029f565b60405161014b9190610314565b60405180910390f35b600062093a80600054426101689190610371565b6101729190610340565b905090565b6000806004610184610154565b61018e91906103af565b146101ce576040517f08c379a00000000000000000000000000000000000000000000000000000000081526004016101c5906102f4565b60405180910390fd5b60046101d8610154565b6101e29190610340565b905090565b6000603c600054426101f99190610371565b6102039190610340565b905090565b60005481565b60006001600054426102209190610371565b61022a9190610340565b905090565b600080600c61023c610177565b61024691906103af565b14610286576040517f08c379a000000000000000000000000000000000000000000000000000000000815260040161027d906102f4565b60405180910390fd5b600c610290610177565b61029a9190610340565b905090565b600062015180600054426102b39190610371565b6102bd9190610340565b905090565b60006102cf60058361032f565b91506102da8261043e565b602082019050919050565b6102ee816103a5565b82525050565b6000602082019050818103600083015261030d816102c2565b9050919050565b600060208201905061032960008301846102e5565b92915050565b600082825260208201905092915050565b600061034b826103a5565b9150610356836103a5565b9250826103665761036561040f565b5b828204905092915050565b600061037c826103a5565b9150610387836103a5565b92508282101561039a576103996103e0565b5b828203905092915050565b6000819050919050565b60006103ba826103a5565b91506103c5836103a5565b9250826103d5576103d461040f565b5b828206905092915050565b7f4e487b7100000000000000000000000000000000000000000000000000000000600052601160045260246000fd5b7f4e487b7100000000000000000000000000000000000000000000000000000000600052601260045260246000fd5b7f4572726f7200000000000000000000000000000000000000000000000000000060008201525056fea26469706673582212204e76f56432705cda9ce93105c633fa7a02cc7d6af811f66c74abe66867d6e38164736f6c63430008010033",
  "immutableReferences": {},
  "source": "// SPDX-License-Identifier: MIT\npragma solidity ^0.8.0;\n\n/**\n * @author Pedro Machado\n * @title Time\n * @notice You can see how long have been passed in different time scales after deploy the current contract\n*/\n\ncontract Time {\n    \n    uint256 public bornDate;\n    \n    constructor() {\n        bornDate = block.timestamp;\n    }\n    \n    function secondsAgo() view public returns(uint256) {\n        return (block.timestamp - bornDate) / 1 seconds;\n    }\n    \n    function minutesAgo() view public returns(uint256) {\n        return (block.timestamp - bornDate) / 1 minutes;\n    }\n    \n    function daysAgo() view public returns(uint256) {\n        return (block.timestamp - bornDate) / 1 days;\n    }\n    \n    function weeksAgo() view public returns(uint256) {\n        return (block.timestamp - bornDate) / 1 weeks;\n    }\n\n    function monthsAgo() view public returns(uint256) {\n      require(weeksAgo() % 4 == 0, \"Error\");\n      return weeksAgo() / 4;\n    }\n\n    function yearsAgo() view public returns(uint256) {\n      require(monthsAgo() % 12 == 0, \"Error\");\n      return monthsAgo() / 12;\n    }\n            \n}",
  "sourcePath": "/home/peter/Documents/project/Time/contracts/Time.sol",
  "compiler": {
    "name": "solc",
    "version": "0.8.1+commit.df193b15.Emscripten.clang"
  },
  "schemaVersion": "3.4.3",
  "updatedAt": "2021-11-07T05:12:00.091Z",
  "devdoc": {
    "author": "Pedro Machado",
    "kind": "dev",
    "methods": {},
    "title": "Time",
    "version": 1
  },
  "userdoc": {
    "kind": "user",
    "methods": {},
    "notice": "You can see how long have been passed in different time scales after deploy the current contract",
    "version": 1
  }
}